{
  "contractName": "MyNFT",
  "abi": [
    {
      "inputs": [],
      "stateMutability": "nonpayable",
      "type": "constructor"
    },
    {
      "anonymous": false,
      "inputs": [
        {
          "indexed": true,
          "internalType": "address",
          "name": "owner",
          "type": "address"
        },
        {
          "indexed": true,
          "internalType": "address",
          "name": "approved",
          "type": "address"
        },
        {
          "indexed": true,
          "internalType": "uint256",
          "name": "tokenId",
          "type": "uint256"
        }
      ],
      "name": "Approval",
      "type": "event"
    },
    {
      "anonymous": false,
      "inputs": [
        {
          "indexed": true,
          "internalType": "address",
          "name": "owner",
          "type": "address"
        },
        {
          "indexed": true,
          "internalType": "address",
          "name": "operator",
          "type": "address"
        },
        {
          "indexed": false,
          "internalType": "bool",
          "name": "approved",
          "type": "bool"
        }
      ],
      "name": "ApprovalForAll",
      "type": "event"
    },
    {
      "anonymous": false,
      "inputs": [
        {
          "indexed": true,
          "internalType": "address",
          "name": "from",
          "type": "address"
        },
        {
          "indexed": true,
          "internalType": "address",
          "name": "to",
          "type": "address"
        },
        {
          "indexed": true,
          "internalType": "uint256",
          "name": "tokenId",
          "type": "uint256"
        }
      ],
      "name": "Transfer",
      "type": "event"
    },
    {
      "anonymous": false,
      "inputs": [
        {
          "indexed": false,
          "internalType": "string",
          "name": "",
          "type": "string"
        }
      ],
      "name": "URIChanged",
      "type": "event"
    },
    {
      "inputs": [
        {
          "internalType": "address",
          "name": "to",
          "type": "address"
        },
        {
          "internalType": "uint256",
          "name": "tokenId",
          "type": "uint256"
        }
      ],
      "name": "approve",
      "outputs": [],
      "stateMutability": "nonpayable",
      "type": "function"
    },
    {
      "inputs": [
        {
          "internalType": "address",
          "name": "owner",
          "type": "address"
        }
      ],
      "name": "balanceOf",
      "outputs": [
        {
          "internalType": "uint256",
          "name": "",
          "type": "uint256"
        }
      ],
      "stateMutability": "view",
      "type": "function",
      "constant": true
    },
    {
      "inputs": [
        {
          "internalType": "uint256",
          "name": "tokenId",
          "type": "uint256"
        }
      ],
      "name": "getApproved",
      "outputs": [
        {
          "internalType": "address",
          "name": "",
          "type": "address"
        }
      ],
      "stateMutability": "view",
      "type": "function",
      "constant": true
    },
    {
      "inputs": [
        {
          "internalType": "address",
          "name": "owner",
          "type": "address"
        },
        {
          "internalType": "address",
          "name": "operator",
          "type": "address"
        }
      ],
      "name": "isApprovedForAll",
      "outputs": [
        {
          "internalType": "bool",
          "name": "",
          "type": "bool"
        }
      ],
      "stateMutability": "view",
      "type": "function",
      "constant": true
    },
    {
      "inputs": [],
      "name": "name",
      "outputs": [
        {
          "internalType": "string",
          "name": "",
          "type": "string"
        }
      ],
      "stateMutability": "view",
      "type": "function",
      "constant": true
    },
    {
      "inputs": [
        {
          "internalType": "uint256",
          "name": "tokenId",
          "type": "uint256"
        }
      ],
      "name": "ownerOf",
      "outputs": [
        {
          "internalType": "address",
          "name": "",
          "type": "address"
        }
      ],
      "stateMutability": "view",
      "type": "function",
      "constant": true
    },
    {
      "inputs": [
        {
          "internalType": "address",
          "name": "from",
          "type": "address"
        },
        {
          "internalType": "address",
          "name": "to",
          "type": "address"
        },
        {
          "internalType": "uint256",
          "name": "tokenId",
          "type": "uint256"
        }
      ],
      "name": "safeTransferFrom",
      "outputs": [],
      "stateMutability": "nonpayable",
      "type": "function"
    },
    {
      "inputs": [
        {
          "internalType": "address",
          "name": "from",
          "type": "address"
        },
        {
          "internalType": "address",
          "name": "to",
          "type": "address"
        },
        {
          "internalType": "uint256",
          "name": "tokenId",
          "type": "uint256"
        },
        {
          "internalType": "bytes",
          "name": "data",
          "type": "bytes"
        }
      ],
      "name": "safeTransferFrom",
      "outputs": [],
      "stateMutability": "nonpayable",
      "type": "function"
    },
    {
      "inputs": [
        {
          "internalType": "address",
          "name": "operator",
          "type": "address"
        },
        {
          "internalType": "bool",
          "name": "approved",
          "type": "bool"
        }
      ],
      "name": "setApprovalForAll",
      "outputs": [],
      "stateMutability": "nonpayable",
      "type": "function"
    },
    {
      "inputs": [
        {
          "internalType": "bytes4",
          "name": "interfaceId",
          "type": "bytes4"
        }
      ],
      "name": "supportsInterface",
      "outputs": [
        {
          "internalType": "bool",
          "name": "",
          "type": "bool"
        }
      ],
      "stateMutability": "view",
      "type": "function",
      "constant": true
    },
    {
      "inputs": [],
      "name": "symbol",
      "outputs": [
        {
          "internalType": "string",
          "name": "",
          "type": "string"
        }
      ],
      "stateMutability": "view",
      "type": "function",
      "constant": true
    },
    {
      "inputs": [
        {
          "internalType": "uint256",
          "name": "tokenId",
          "type": "uint256"
        }
      ],
      "name": "tokenURI",
      "outputs": [
        {
          "internalType": "string",
          "name": "",
          "type": "string"
        }
      ],
      "stateMutability": "view",
      "type": "function",
      "constant": true
    },
    {
      "inputs": [
        {
          "internalType": "address",
          "name": "from",
          "type": "address"
        },
        {
          "internalType": "address",
          "name": "to",
          "type": "address"
        },
        {
          "internalType": "uint256",
          "name": "tokenId",
          "type": "uint256"
        }
      ],
      "name": "transferFrom",
      "outputs": [],
      "stateMutability": "nonpayable",
      "type": "function"
    },
    {
      "inputs": [
        {
          "internalType": "address",
          "name": "mintAddress",
          "type": "address"
        }
      ],
      "name": "MintNFT",
      "outputs": [],
      "stateMutability": "nonpayable",
      "type": "function"
    },
    {
      "inputs": [
        {
          "internalType": "string",
          "name": "newURI",
          "type": "string"
        }
      ],
      "name": "changeTokenURI",
      "outputs": [],
      "stateMutability": "nonpayable",
      "type": "function"
    },
    {
      "inputs": [
        {
          "internalType": "address",
          "name": "ownerAddress",
          "type": "address"
        }
      ],
      "name": "addOwner",
      "outputs": [],
      "stateMutability": "nonpayable",
      "type": "function"
    },
    {
      "inputs": [
        {
          "internalType": "address",
          "name": "ownerAddress",
          "type": "address"
        }
      ],
      "name": "removeOwner",
      "outputs": [],
      "stateMutability": "nonpayable",
      "type": "function"
    }
  ],
  "bytecode": "0x60806040526040518060400160405280600781526020017f67656e6573697300000000000000000000000000000000000000000000000000815250600290816200004a9190620007a8565b505f6008553480156200005b575f80fd5b506040518060400160405280600781526020017f48617368546167000000000000000000000000000000000000000000000000008152506040518060400160405280600281526020017f4854000000000000000000000000000000000000000000000000000000000000815250815f9081620000d89190620007a8565b508060019081620000ea9190620007a8565b505050600160075f3373ffffffffffffffffffffffffffffffffffffffff1673ffffffffffffffffffffffffffffffffffffffff1681526020019081526020015f205f6101000a81548160ff02191690831515021790555062000156336008546200015c60201b60201c565b62000a19565b5f73ffffffffffffffffffffffffffffffffffffffff168273ffffffffffffffffffffffffffffffffffffffff1603620001cd576040517f08c379a0000000000000000000000000000000000000000000000000000000008152600401620001c490620008ea565b60405180910390fd5b620001de816200039860201b60201c565b1562000221576040517f08c379a0000000000000000000000000000000000000000000000000000000008152600401620002189062000958565b60405180910390fd5b620002365f83836001620003e060201b60201c565b62000247816200039860201b60201c565b156200028a576040517f08c379a0000000000000000000000000000000000000000000000000000000008152600401620002819062000958565b60405180910390fd5b600160045f8473ffffffffffffffffffffffffffffffffffffffff1673ffffffffffffffffffffffffffffffffffffffff1681526020019081526020015f205f82825401925050819055508160035f8381526020019081526020015f205f6101000a81548173ffffffffffffffffffffffffffffffffffffffff021916908373ffffffffffffffffffffffffffffffffffffffff160217905550808273ffffffffffffffffffffffffffffffffffffffff165f73ffffffffffffffffffffffffffffffffffffffff167fddf252ad1be2c89b69c2b068fc378daa952ba7f163c4a11628f55a4df523b3ef60405160405180910390a4620003945f838360016200050560201b60201c565b5050565b5f8073ffffffffffffffffffffffffffffffffffffffff16620003c1836200050b60201b60201c565b73ffffffffffffffffffffffffffffffffffffffff1614159050919050565b6001811115620004ff575f73ffffffffffffffffffffffffffffffffffffffff168473ffffffffffffffffffffffffffffffffffffffff161462000474578060045f8673ffffffffffffffffffffffffffffffffffffffff1673ffffffffffffffffffffffffffffffffffffffff1681526020019081526020015f205f8282546200046c9190620009a5565b925050819055505b5f73ffffffffffffffffffffffffffffffffffffffff168373ffffffffffffffffffffffffffffffffffffffff1614620004fe578060045f8573ffffffffffffffffffffffffffffffffffffffff1673ffffffffffffffffffffffffffffffffffffffff1681526020019081526020015f205f828254620004f69190620009df565b925050819055505b5b50505050565b50505050565b5f60035f8381526020019081526020015f205f9054906101000a900473ffffffffffffffffffffffffffffffffffffffff169050919050565b5f81519050919050565b7f4e487b71000000000000000000000000000000000000000000000000000000005f52604160045260245ffd5b7f4e487b71000000000000000000000000000000000000000000000000000000005f52602260045260245ffd5b5f6002820490506001821680620005c057607f821691505b602082108103620005d657620005d56200057b565b5b50919050565b5f819050815f5260205f209050919050565b5f6020601f8301049050919050565b5f82821b905092915050565b5f600883026200063a7fffffffffffffffffffffffffffffffffffffffffffffffffffffffffffffffff82620005fd565b620006468683620005fd565b95508019841693508086168417925050509392505050565b5f819050919050565b5f819050919050565b5f620006906200068a62000684846200065e565b62000667565b6200065e565b9050919050565b5f819050919050565b620006ab8362000670565b620006c3620006ba8262000697565b84845462000609565b825550505050565b5f90565b620006d9620006cb565b620006e6818484620006a0565b505050565b5b818110156200070d57620007015f82620006cf565b600181019050620006ec565b5050565b601f8211156200075c576200072681620005dc565b6200073184620005ee565b8101602085101562000741578190505b620007596200075085620005ee565b830182620006eb565b50505b505050565b5f82821c905092915050565b5f6200077e5f198460080262000761565b1980831691505092915050565b5f6200079883836200076d565b9150826002028217905092915050565b620007b38262000544565b67ffffffffffffffff811115620007cf57620007ce6200054e565b5b620007db8254620005a8565b620007e882828562000711565b5f60209050601f8311600181146200081e575f841562000809578287015190505b6200081585826200078b565b86555062000884565b601f1984166200082e86620005dc565b5f5b82811015620008575784890151825560018201915060208501945060208101905062000830565b8683101562000877578489015162000873601f8916826200076d565b8355505b6001600288020188555050505b505050505050565b5f82825260208201905092915050565b7f4552433732313a206d696e7420746f20746865207a65726f20616464726573735f82015250565b5f620008d26020836200088c565b9150620008df826200089c565b602082019050919050565b5f6020820190508181035f8301526200090381620008c4565b9050919050565b7f4552433732313a20746f6b656e20616c7265616479206d696e746564000000005f82015250565b5f62000940601c836200088c565b91506200094d826200090a565b602082019050919050565b5f6020820190508181035f830152620009718162000932565b9050919050565b7f4e487b71000000000000000000000000000000000000000000000000000000005f52601160045260245ffd5b5f620009b1826200065e565b9150620009be836200065e565b9250828203905081811115620009d957620009d862000978565b5b92915050565b5f620009eb826200065e565b9150620009f8836200065e565b925082820190508082111562000a135762000a1262000978565b5b92915050565b6129ea8062000a275f395ff3fe608060405234801561000f575f80fd5b5060043610610109575f3560e01c80636352211e116100a057806395d89b411161006f57806395d89b41146102af578063a22cb465146102cd578063b88d4fde146102e9578063c87b56dd14610305578063e985e9c51461033557610109565b80636352211e146102175780637065cb481461024757806370a08231146102635780637d7b17a11461029357610109565b8063173825d9116100dc578063173825d9146101a757806323b872dd146101c3578063385e9e2e146101df57806342842e0e146101fb57610109565b806301ffc9a71461010d57806306fdde031461013d578063081812fc1461015b578063095ea7b31461018b575b5f80fd5b61012760048036038101906101229190611993565b610365565b60405161013491906119d8565b60405180910390f35b610145610446565b6040516101529190611a7b565b60405180910390f35b61017560048036038101906101709190611ace565b6104d5565b6040516101829190611b38565b60405180910390f35b6101a560048036038101906101a09190611b7b565b610517565b005b6101c160048036038101906101bc9190611bb9565b61061f565b005b6101dd60048036038101906101d89190611be4565b6106ff565b005b6101f960048036038101906101f49190611bb9565b610758565b005b61021560048036038101906102109190611be4565b610805565b005b610231600480360381019061022c9190611ace565b610824565b60405161023e9190611b38565b60405180910390f35b610261600480360381019061025c9190611bb9565b6108a8565b005b61027d60048036038101906102789190611bb9565b610989565b60405161028a9190611c43565b60405180910390f35b6102ad60048036038101906102a89190611d88565b610a3d565b005b6102b7610b10565b6040516102c49190611a7b565b60405180910390f35b6102e760048036038101906102e29190611df9565b610ba0565b005b61030360048036038101906102fe9190611ed5565b610baf565b005b61031f600480360381019061031a9190611ace565b610c0a565b60405161032c9190611a7b565b60405180910390f35b61034f600480360381019061034a9190611f55565b610ca5565b60405161035c91906119d8565b60405180910390f35b5f7f80ac58cd000000000000000000000000000000000000000000000000000000007bffffffffffffffffffffffffffffffffffffffffffffffffffffffff1916827bffffffffffffffffffffffffffffffffffffffffffffffffffffffff1916148061042f57507f5b5e139f000000000000000000000000000000000000000000000000000000007bffffffffffffffffffffffffffffffffffffffffffffffffffffffff1916827bffffffffffffffffffffffffffffffffffffffffffffffffffffffff1916145b8061043f575061043e82610d33565b5b9050919050565b60605f805461045490611fc0565b80601f016020809104026020016040519081016040528092919081815260200182805461048090611fc0565b80156104cb5780601f106104a2576101008083540402835291602001916104cb565b820191905f5260205f20905b8154815290600101906020018083116104ae57829003601f168201915b5050505050905090565b5f6104df82610d9c565b60055f8381526020019081526020015f205f9054906101000a900473ffffffffffffffffffffffffffffffffffffffff169050919050565b5f61052182610824565b90508073ffffffffffffffffffffffffffffffffffffffff168373ffffffffffffffffffffffffffffffffffffffff1603610591576040517f08c379a000000000000000000000000000000000000000000000000000000000815260040161058890612060565b60405180910390fd5b8073ffffffffffffffffffffffffffffffffffffffff163373ffffffffffffffffffffffffffffffffffffffff1614806105d157506105d08133610ca5565b5b610610576040517f08c379a0000000000000000000000000000000000000000000000000000000008152600401610607906120ee565b60405180910390fd5b61061a8383610de7565b505050565b60075f3373ffffffffffffffffffffffffffffffffffffffff1673ffffffffffffffffffffffffffffffffffffffff1681526020019081526020015f205f9054906101000a900460ff166106a8576040517f08c379a000000000000000000000000000000000000000000000000000000000815260040161069f90612156565b60405180910390fd5b5f60075f8373ffffffffffffffffffffffffffffffffffffffff1673ffffffffffffffffffffffffffffffffffffffff1681526020019081526020015f205f6101000a81548160ff02191690831515021790555050565b6107093382610e9d565b610748576040517f08c379a000000000000000000000000000000000000000000000000000000000815260040161073f906121e4565b60405180910390fd5b610753838383610f31565b505050565b60075f3373ffffffffffffffffffffffffffffffffffffffff1673ffffffffffffffffffffffffffffffffffffffff1681526020019081526020015f205f9054906101000a900460ff166107e1576040517f08c379a00000000000000000000000000000000000000000000000000000000081526004016107d890612156565b60405180910390fd5b60016008546107f0919061222f565b6008819055506108028160085461121d565b50565b61081f83838360405180602001604052805f815250610baf565b505050565b5f8061082f83611430565b90505f73ffffffffffffffffffffffffffffffffffffffff168173ffffffffffffffffffffffffffffffffffffffff160361089f576040517f08c379a0000000000000000000000000000000000000000000000000000000008152600401610896906122ac565b60405180910390fd5b80915050919050565b60075f3373ffffffffffffffffffffffffffffffffffffffff1673ffffffffffffffffffffffffffffffffffffffff1681526020019081526020015f205f9054906101000a900460ff16610931576040517f08c379a000000000000000000000000000000000000000000000000000000000815260040161092890612156565b60405180910390fd5b600160075f8373ffffffffffffffffffffffffffffffffffffffff1673ffffffffffffffffffffffffffffffffffffffff1681526020019081526020015f205f6101000a81548160ff02191690831515021790555050565b5f8073ffffffffffffffffffffffffffffffffffffffff168273ffffffffffffffffffffffffffffffffffffffff16036109f8576040517f08c379a00000000000000000000000000000000000000000000000000000000081526004016109ef9061233a565b60405180910390fd5b60045f8373ffffffffffffffffffffffffffffffffffffffff1673ffffffffffffffffffffffffffffffffffffffff1681526020019081526020015f20549050919050565b60075f3373ffffffffffffffffffffffffffffffffffffffff1673ffffffffffffffffffffffffffffffffffffffff1681526020019081526020015f205f9054906101000a900460ff16610ac6576040517f08c379a0000000000000000000000000000000000000000000000000000000008152600401610abd90612156565b60405180910390fd5b8060029081610ad591906124f5565b507fbd06d92759c326896ec0f7c3a981e801ae4644e020f89b2a198909b692df0ddd81604051610b059190611a7b565b60405180910390a150565b606060018054610b1f90611fc0565b80601f0160208091040260200160405190810160405280929190818152602001828054610b4b90611fc0565b8015610b965780601f10610b6d57610100808354040283529160200191610b96565b820191905f5260205f20905b815481529060010190602001808311610b7957829003601f168201915b5050505050905090565b610bab338383611469565b5050565b610bb93383610e9d565b610bf8576040517f08c379a0000000000000000000000000000000000000000000000000000000008152600401610bef906121e4565b60405180910390fd5b610c04848484846115d0565b50505050565b6060610c1582610d9c565b60028054610c2290611fc0565b80601f0160208091040260200160405190810160405280929190818152602001828054610c4e90611fc0565b8015610c995780601f10610c7057610100808354040283529160200191610c99565b820191905f5260205f20905b815481529060010190602001808311610c7c57829003601f168201915b50505050509050919050565b5f60065f8473ffffffffffffffffffffffffffffffffffffffff1673ffffffffffffffffffffffffffffffffffffffff1681526020019081526020015f205f8373ffffffffffffffffffffffffffffffffffffffff1673ffffffffffffffffffffffffffffffffffffffff1681526020019081526020015f205f9054906101000a900460ff16905092915050565b5f7f01ffc9a7000000000000000000000000000000000000000000000000000000007bffffffffffffffffffffffffffffffffffffffffffffffffffffffff1916827bffffffffffffffffffffffffffffffffffffffffffffffffffffffff1916149050919050565b610da58161162c565b610de4576040517f08c379a0000000000000000000000000000000000000000000000000000000008152600401610ddb906122ac565b60405180910390fd5b50565b8160055f8381526020019081526020015f205f6101000a81548173ffffffffffffffffffffffffffffffffffffffff021916908373ffffffffffffffffffffffffffffffffffffffff160217905550808273ffffffffffffffffffffffffffffffffffffffff16610e5783610824565b73ffffffffffffffffffffffffffffffffffffffff167f8c5be1e5ebec7d5bd14f71427d1e84f3dd0314c0f7b2291e5b200ac8c7c3b92560405160405180910390a45050565b5f80610ea883610824565b90508073ffffffffffffffffffffffffffffffffffffffff168473ffffffffffffffffffffffffffffffffffffffff161480610eea5750610ee98185610ca5565b5b80610f2857508373ffffffffffffffffffffffffffffffffffffffff16610f10846104d5565b73ffffffffffffffffffffffffffffffffffffffff16145b91505092915050565b8273ffffffffffffffffffffffffffffffffffffffff16610f5182610824565b73ffffffffffffffffffffffffffffffffffffffff1614610fa7576040517f08c379a0000000000000000000000000000000000000000000000000000000008152600401610f9e90612634565b60405180910390fd5b5f73ffffffffffffffffffffffffffffffffffffffff168273ffffffffffffffffffffffffffffffffffffffff1603611015576040517f08c379a000000000000000000000000000000000000000000000000000000000815260040161100c906126c2565b60405180910390fd5b611022838383600161166c565b8273ffffffffffffffffffffffffffffffffffffffff1661104282610824565b73ffffffffffffffffffffffffffffffffffffffff1614611098576040517f08c379a000000000000000000000000000000000000000000000000000000000815260040161108f90612634565b60405180910390fd5b60055f8281526020019081526020015f205f6101000a81549073ffffffffffffffffffffffffffffffffffffffff0219169055600160045f8573ffffffffffffffffffffffffffffffffffffffff1673ffffffffffffffffffffffffffffffffffffffff1681526020019081526020015f205f8282540392505081905550600160045f8473ffffffffffffffffffffffffffffffffffffffff1673ffffffffffffffffffffffffffffffffffffffff1681526020019081526020015f205f82825401925050819055508160035f8381526020019081526020015f205f6101000a81548173ffffffffffffffffffffffffffffffffffffffff021916908373ffffffffffffffffffffffffffffffffffffffff160217905550808273ffffffffffffffffffffffffffffffffffffffff168473ffffffffffffffffffffffffffffffffffffffff167fddf252ad1be2c89b69c2b068fc378daa952ba7f163c4a11628f55a4df523b3ef60405160405180910390a4611218838383600161178a565b505050565b5f73ffffffffffffffffffffffffffffffffffffffff168273ffffffffffffffffffffffffffffffffffffffff160361128b576040517f08c379a00000000000000000000000000000000000000000000000000000000081526004016112829061272a565b60405180910390fd5b6112948161162c565b156112d4576040517f08c379a00000000000000000000000000000000000000000000000000000000081526004016112cb90612792565b60405180910390fd5b6112e15f8383600161166c565b6112ea8161162c565b1561132a576040517f08c379a000000000000000000000000000000000000000000000000000000000815260040161132190612792565b60405180910390fd5b600160045f8473ffffffffffffffffffffffffffffffffffffffff1673ffffffffffffffffffffffffffffffffffffffff1681526020019081526020015f205f82825401925050819055508160035f8381526020019081526020015f205f6101000a81548173ffffffffffffffffffffffffffffffffffffffff021916908373ffffffffffffffffffffffffffffffffffffffff160217905550808273ffffffffffffffffffffffffffffffffffffffff165f73ffffffffffffffffffffffffffffffffffffffff167fddf252ad1be2c89b69c2b068fc378daa952ba7f163c4a11628f55a4df523b3ef60405160405180910390a461142c5f8383600161178a565b5050565b5f60035f8381526020019081526020015f205f9054906101000a900473ffffffffffffffffffffffffffffffffffffffff169050919050565b8173ffffffffffffffffffffffffffffffffffffffff168373ffffffffffffffffffffffffffffffffffffffff16036114d7576040517f08c379a00000000000000000000000000000000000000000000000000000000081526004016114ce906127fa565b60405180910390fd5b8060065f8573ffffffffffffffffffffffffffffffffffffffff1673ffffffffffffffffffffffffffffffffffffffff1681526020019081526020015f205f8473ffffffffffffffffffffffffffffffffffffffff1673ffffffffffffffffffffffffffffffffffffffff1681526020019081526020015f205f6101000a81548160ff0219169083151502179055508173ffffffffffffffffffffffffffffffffffffffff168373ffffffffffffffffffffffffffffffffffffffff167f17307eab39ab6107e8899845ad3d59bd9653f200f220920489ca2b5937696c31836040516115c391906119d8565b60405180910390a3505050565b6115db848484610f31565b6115e784848484611790565b611626576040517f08c379a000000000000000000000000000000000000000000000000000000000815260040161161d90612888565b60405180910390fd5b50505050565b5f8073ffffffffffffffffffffffffffffffffffffffff1661164d83611430565b73ffffffffffffffffffffffffffffffffffffffff1614159050919050565b6001811115611784575f73ffffffffffffffffffffffffffffffffffffffff168473ffffffffffffffffffffffffffffffffffffffff16146116fc578060045f8673ffffffffffffffffffffffffffffffffffffffff1673ffffffffffffffffffffffffffffffffffffffff1681526020019081526020015f205f8282546116f491906128a6565b925050819055505b5f73ffffffffffffffffffffffffffffffffffffffff168373ffffffffffffffffffffffffffffffffffffffff1614611783578060045f8573ffffffffffffffffffffffffffffffffffffffff1673ffffffffffffffffffffffffffffffffffffffff1681526020019081526020015f205f82825461177b919061222f565b925050819055505b5b50505050565b50505050565b5f6117b08473ffffffffffffffffffffffffffffffffffffffff1661190b565b156118fe578373ffffffffffffffffffffffffffffffffffffffff1663150b7a02338786866040518563ffffffff1660e01b81526004016117f4949392919061292b565b6020604051808303815f875af192505050801561182f57506040513d601f19601f8201168201806040525081019061182c9190612989565b60015b6118ae573d805f811461185d576040519150601f19603f3d011682016040523d82523d5f602084013e611862565b606091505b505f8151036118a6576040517f08c379a000000000000000000000000000000000000000000000000000000000815260040161189d90612888565b60405180910390fd5b805181602001fd5b63150b7a0260e01b7bffffffffffffffffffffffffffffffffffffffffffffffffffffffff1916817bffffffffffffffffffffffffffffffffffffffffffffffffffffffff191614915050611903565b600190505b949350505050565b5f808273ffffffffffffffffffffffffffffffffffffffff163b119050919050565b5f604051905090565b5f80fd5b5f80fd5b5f7fffffffff0000000000000000000000000000000000000000000000000000000082169050919050565b6119728161193e565b811461197c575f80fd5b50565b5f8135905061198d81611969565b92915050565b5f602082840312156119a8576119a7611936565b5b5f6119b58482850161197f565b91505092915050565b5f8115159050919050565b6119d2816119be565b82525050565b5f6020820190506119eb5f8301846119c9565b92915050565b5f81519050919050565b5f82825260208201905092915050565b5f5b83811015611a28578082015181840152602081019050611a0d565b5f8484015250505050565b5f601f19601f8301169050919050565b5f611a4d826119f1565b611a5781856119fb565b9350611a67818560208601611a0b565b611a7081611a33565b840191505092915050565b5f6020820190508181035f830152611a938184611a43565b905092915050565b5f819050919050565b611aad81611a9b565b8114611ab7575f80fd5b50565b5f81359050611ac881611aa4565b92915050565b5f60208284031215611ae357611ae2611936565b5b5f611af084828501611aba565b91505092915050565b5f73ffffffffffffffffffffffffffffffffffffffff82169050919050565b5f611b2282611af9565b9050919050565b611b3281611b18565b82525050565b5f602082019050611b4b5f830184611b29565b92915050565b611b5a81611b18565b8114611b64575f80fd5b50565b5f81359050611b7581611b51565b92915050565b5f8060408385031215611b9157611b90611936565b5b5f611b9e85828601611b67565b9250506020611baf85828601611aba565b9150509250929050565b5f60208284031215611bce57611bcd611936565b5b5f611bdb84828501611b67565b91505092915050565b5f805f60608486031215611bfb57611bfa611936565b5b5f611c0886828701611b67565b9350506020611c1986828701611b67565b9250506040611c2a86828701611aba565b9150509250925092565b611c3d81611a9b565b82525050565b5f602082019050611c565f830184611c34565b92915050565b5f80fd5b5f80fd5b7f4e487b71000000000000000000000000000000000000000000000000000000005f52604160045260245ffd5b611c9a82611a33565b810181811067ffffffffffffffff82111715611cb957611cb8611c64565b5b80604052505050565b5f611ccb61192d565b9050611cd78282611c91565b919050565b5f67ffffffffffffffff821115611cf657611cf5611c64565b5b611cff82611a33565b9050602081019050919050565b828183375f83830152505050565b5f611d2c611d2784611cdc565b611cc2565b905082815260208101848484011115611d4857611d47611c60565b5b611d53848285611d0c565b509392505050565b5f82601f830112611d6f57611d6e611c5c565b5b8135611d7f848260208601611d1a565b91505092915050565b5f60208284031215611d9d57611d9c611936565b5b5f82013567ffffffffffffffff811115611dba57611db961193a565b5b611dc684828501611d5b565b91505092915050565b611dd8816119be565b8114611de2575f80fd5b50565b5f81359050611df381611dcf565b92915050565b5f8060408385031215611e0f57611e0e611936565b5b5f611e1c85828601611b67565b9250506020611e2d85828601611de5565b9150509250929050565b5f67ffffffffffffffff821115611e5157611e50611c64565b5b611e5a82611a33565b9050602081019050919050565b5f611e79611e7484611e37565b611cc2565b905082815260208101848484011115611e9557611e94611c60565b5b611ea0848285611d0c565b509392505050565b5f82601f830112611ebc57611ebb611c5c565b5b8135611ecc848260208601611e67565b91505092915050565b5f805f8060808587031215611eed57611eec611936565b5b5f611efa87828801611b67565b9450506020611f0b87828801611b67565b9350506040611f1c87828801611aba565b925050606085013567ffffffffffffffff811115611f3d57611f3c61193a565b5b611f4987828801611ea8565b91505092959194509250565b5f8060408385031215611f6b57611f6a611936565b5b5f611f7885828601611b67565b9250506020611f8985828601611b67565b9150509250929050565b7f4e487b71000000000000000000000000000000000000000000000000000000005f52602260045260245ffd5b5f6002820490506001821680611fd757607f821691505b602082108103611fea57611fe9611f93565b5b50919050565b7f4552433732313a20617070726f76616c20746f2063757272656e74206f776e655f8201527f7200000000000000000000000000000000000000000000000000000000000000602082015250565b5f61204a6021836119fb565b915061205582611ff0565b604082019050919050565b5f6020820190508181035f8301526120778161203e565b9050919050565b7f4552433732313a20617070726f76652063616c6c6572206973206e6f7420746f5f8201527f6b656e206f776e6572206f7220617070726f76656420666f7220616c6c000000602082015250565b5f6120d8603d836119fb565b91506120e38261207e565b604082019050919050565b5f6020820190508181035f830152612105816120cc565b9050919050565b7f596f75277265206e6f7420617574686f72697a656400000000000000000000005f82015250565b5f6121406015836119fb565b915061214b8261210c565b602082019050919050565b5f6020820190508181035f83015261216d81612134565b9050919050565b7f4552433732313a2063616c6c6572206973206e6f7420746f6b656e206f776e655f8201527f72206f7220617070726f76656400000000000000000000000000000000000000602082015250565b5f6121ce602d836119fb565b91506121d982612174565b604082019050919050565b5f6020820190508181035f8301526121fb816121c2565b9050919050565b7f4e487b71000000000000000000000000000000000000000000000000000000005f52601160045260245ffd5b5f61223982611a9b565b915061224483611a9b565b925082820190508082111561225c5761225b612202565b5b92915050565b7f4552433732313a20696e76616c696420746f6b656e20494400000000000000005f82015250565b5f6122966018836119fb565b91506122a182612262565b602082019050919050565b5f6020820190508181035f8301526122c38161228a565b9050919050565b7f4552433732313a2061646472657373207a65726f206973206e6f7420612076615f8201527f6c6964206f776e65720000000000000000000000000000000000000000000000602082015250565b5f6123246029836119fb565b915061232f826122ca565b604082019050919050565b5f6020820190508181035f83015261235181612318565b9050919050565b5f819050815f5260205f209050919050565b5f6020601f8301049050919050565b5f82821b905092915050565b5f600883026123b47fffffffffffffffffffffffffffffffffffffffffffffffffffffffffffffffff82612379565b6123be8683612379565b95508019841693508086168417925050509392505050565b5f819050919050565b5f6123f96123f46123ef84611a9b565b6123d6565b611a9b565b9050919050565b5f819050919050565b612412836123df565b61242661241e82612400565b848454612385565b825550505050565b5f90565b61243a61242e565b612445818484612409565b505050565b5b818110156124685761245d5f82612432565b60018101905061244b565b5050565b601f8211156124ad5761247e81612358565b6124878461236a565b81016020851015612496578190505b6124aa6124a28561236a565b83018261244a565b50505b505050565b5f82821c905092915050565b5f6124cd5f19846008026124b2565b1980831691505092915050565b5f6124e583836124be565b9150826002028217905092915050565b6124fe826119f1565b67ffffffffffffffff81111561251757612516611c64565b5b6125218254611fc0565b61252c82828561246c565b5f60209050601f83116001811461255d575f841561254b578287015190505b61255585826124da565b8655506125bc565b601f19841661256b86612358565b5f5b828110156125925784890151825560018201915060208501945060208101905061256d565b868310156125af57848901516125ab601f8916826124be565b8355505b6001600288020188555050505b505050505050565b7f4552433732313a207472616e736665722066726f6d20696e636f7272656374205f8201527f6f776e6572000000000000000000000000000000000000000000000000000000602082015250565b5f61261e6025836119fb565b9150612629826125c4565b604082019050919050565b5f6020820190508181035f83015261264b81612612565b9050919050565b7f4552433732313a207472616e7366657220746f20746865207a65726f206164645f8201527f7265737300000000000000000000000000000000000000000000000000000000602082015250565b5f6126ac6024836119fb565b91506126b782612652565b604082019050919050565b5f6020820190508181035f8301526126d9816126a0565b9050919050565b7f4552433732313a206d696e7420746f20746865207a65726f20616464726573735f82015250565b5f6127146020836119fb565b915061271f826126e0565b602082019050919050565b5f6020820190508181035f83015261274181612708565b9050919050565b7f4552433732313a20746f6b656e20616c7265616479206d696e746564000000005f82015250565b5f61277c601c836119fb565b915061278782612748565b602082019050919050565b5f6020820190508181035f8301526127a981612770565b9050919050565b7f4552433732313a20617070726f766520746f2063616c6c6572000000000000005f82015250565b5f6127e46019836119fb565b91506127ef826127b0565b602082019050919050565b5f6020820190508181035f830152612811816127d8565b9050919050565b7f4552433732313a207472616e7366657220746f206e6f6e2045524337323152655f8201527f63656976657220696d706c656d656e7465720000000000000000000000000000602082015250565b5f6128726032836119fb565b915061287d82612818565b604082019050919050565b5f6020820190508181035f83015261289f81612866565b9050919050565b5f6128b082611a9b565b91506128bb83611a9b565b92508282039050818111156128d3576128d2612202565b5b92915050565b5f81519050919050565b5f82825260208201905092915050565b5f6128fd826128d9565b61290781856128e3565b9350612917818560208601611a0b565b61292081611a33565b840191505092915050565b5f60808201905061293e5f830187611b29565b61294b6020830186611b29565b6129586040830185611c34565b818103606083015261296a81846128f3565b905095945050505050565b5f8151905061298381611969565b92915050565b5f6020828403121561299e5761299d611936565b5b5f6129ab84828501612975565b9150509291505056fea26469706673582212200a5a0caba123c0912890753735d41c896dbf1bb3829c9669e4498b428fedb35e64736f6c63430008150033",
  "immutableReferences": {},
  "source": "// SPDX-License-Identifier: MIT\r\npragma solidity 0.8.21;\r\n\r\nimport \"./ERC721.sol\";\r\n\r\ncontract MyNFT is ERC721 {\r\n    mapping(address => bool) isOwner;\r\n    uint256 nftCount = 0;\r\n\r\n    event URIChanged(string);\r\n\r\n    constructor() ERC721(\"HashTag\", \"HT\") {\r\n        isOwner[msg.sender] = true;\r\n        _mint(msg.sender, nftCount);\r\n    }\r\n\r\n    modifier onlyOwner() {\r\n        require(isOwner[msg.sender], \"You're not authorized\");\r\n        _;\r\n    }\r\n\r\n    function MintNFT(address mintAddress) public onlyOwner {\r\n        nftCount = nftCount + 1;\r\n        _mint(mintAddress, nftCount);\r\n    }\r\n\r\n    function changeTokenURI(string memory newURI) public onlyOwner {\r\n        _baseURI = newURI;\r\n        emit URIChanged(newURI);\r\n    }\r\n\r\n    function addOwner(address ownerAddress) public onlyOwner {\r\n        isOwner[ownerAddress] = true;\r\n    }\r\n\r\n    function removeOwner(address ownerAddress) public onlyOwner {\r\n        isOwner[ownerAddress] = false;\r\n    }\r\n}",
  "sourcePath": "D:\\blockchainarchitect9\\kba\\Certified_Ethereum_Developer\\ced-test\\truffle\\contracts\\MyNFT.sol",
  "compiler": {
    "name": "solc",
    "version": "0.8.21+commit.d9974bed.Emscripten.clang"
  },
  "schemaVersion": "3.4.16",
  "updatedAt": "2023-09-21T05:54:41.572Z",
  "networkType": "ethereum",
  "devdoc": {
    "events": {
      "Approval(address,address,uint256)": {
        "details": "Emitted when `owner` enables `approved` to manage the `tokenId` token."
      },
      "ApprovalForAll(address,address,bool)": {
        "details": "Emitted when `owner` enables or disables (`approved`) `operator` to manage all of its assets."
      },
      "Transfer(address,address,uint256)": {
        "details": "Emitted when `tokenId` token is transferred from `from` to `to`."
      }
    },
    "kind": "dev",
    "methods": {
      "approve(address,uint256)": {
        "details": "See {IERC721-approve}."
      },
      "balanceOf(address)": {
        "details": "See {IERC721-balanceOf}."
      },
      "getApproved(uint256)": {
        "details": "See {IERC721-getApproved}."
      },
      "isApprovedForAll(address,address)": {
        "details": "See {IERC721-isApprovedForAll}."
      },
      "name()": {
        "details": "See {IERC721Metadata-name}."
      },
      "ownerOf(uint256)": {
        "details": "See {IERC721-ownerOf}."
      },
      "safeTransferFrom(address,address,uint256)": {
        "details": "See {IERC721-safeTransferFrom}."
      },
      "safeTransferFrom(address,address,uint256,bytes)": {
        "details": "See {IERC721-safeTransferFrom}."
      },
      "setApprovalForAll(address,bool)": {
        "details": "See {IERC721-setApprovalForAll}."
      },
      "supportsInterface(bytes4)": {
        "details": "See {IERC165-supportsInterface}."
      },
      "symbol()": {
        "details": "See {IERC721Metadata-symbol}."
      },
      "tokenURI(uint256)": {
        "details": "See {IERC721Metadata-tokenURI}."
      },
      "transferFrom(address,address,uint256)": {
        "details": "See {IERC721-transferFrom}."
      }
    },
    "version": 1
  },
  "userdoc": {
    "kind": "user",
    "methods": {},
    "version": 1
  }
}